{
  "_format": "hh-sol-artifact-1",
  "contractName": "StackPointClaim",
  "sourceName": "contracts/StackPointClaim.sol",
  "abi": [
    {
      "inputs": [],
      "stateMutability": "nonpayable",
      "type": "constructor"
    },
    {
      "inputs": [
        {
          "internalType": "address",
          "name": "target",
          "type": "address"
        }
      ],
      "name": "AddressEmptyCode",
      "type": "error"
    },
    {
      "inputs": [
        {
          "internalType": "address",
          "name": "account",
          "type": "address"
        }
      ],
      "name": "AddressInsufficientBalance",
      "type": "error"
    },
    {
      "inputs": [],
      "name": "ECDSAInvalidSignature",
      "type": "error"
    },
    {
      "inputs": [
        {
          "internalType": "uint256",
          "name": "length",
          "type": "uint256"
        }
      ],
      "name": "ECDSAInvalidSignatureLength",
      "type": "error"
    },
    {
      "inputs": [
        {
          "internalType": "bytes32",
          "name": "s",
          "type": "bytes32"
        }
      ],
      "name": "ECDSAInvalidSignatureS",
      "type": "error"
    },
    {
      "inputs": [
        {
          "internalType": "address",
          "name": "implementation",
          "type": "address"
        }
      ],
      "name": "ERC1967InvalidImplementation",
      "type": "error"
    },
    {
      "inputs": [],
      "name": "ERC1967NonPayable",
      "type": "error"
    },
    {
      "inputs": [],
      "name": "EnforcedPause",
      "type": "error"
    },
    {
      "inputs": [],
      "name": "ExpectedPause",
      "type": "error"
    },
    {
      "inputs": [],
      "name": "FailedInnerCall",
      "type": "error"
    },
    {
      "inputs": [],
      "name": "InvalidInitialization",
      "type": "error"
    },
    {
      "inputs": [],
      "name": "NotInitializing",
      "type": "error"
    },
    {
      "inputs": [
        {
          "internalType": "address",
          "name": "owner",
          "type": "address"
        }
      ],
      "name": "OwnableInvalidOwner",
      "type": "error"
    },
    {
      "inputs": [
        {
          "internalType": "address",
          "name": "account",
          "type": "address"
        }
      ],
      "name": "OwnableUnauthorizedAccount",
      "type": "error"
    },
    {
      "inputs": [
        {
          "internalType": "address",
          "name": "token",
          "type": "address"
        }
      ],
      "name": "SafeERC20FailedOperation",
      "type": "error"
    },
    {
      "inputs": [],
      "name": "UUPSUnauthorizedCallContext",
      "type": "error"
    },
    {
      "inputs": [
        {
          "internalType": "bytes32",
          "name": "slot",
          "type": "bytes32"
        }
      ],
      "name": "UUPSUnsupportedProxiableUUID",
      "type": "error"
    },
    {
      "anonymous": false,
      "inputs": [
        {
          "indexed": false,
          "internalType": "uint256",
          "name": "accId",
          "type": "uint256"
        },
        {
          "indexed": false,
          "internalType": "address",
          "name": "addr",
          "type": "address"
        },
        {
          "indexed": false,
          "internalType": "uint256",
          "name": "amount",
          "type": "uint256"
        },
        {
          "indexed": false,
          "internalType": "uint256",
          "name": "nonce",
          "type": "uint256"
        }
      ],
      "name": "BountyClaim",
      "type": "event"
    },
    {
      "anonymous": false,
      "inputs": [
        {
          "indexed": false,
          "internalType": "string",
          "name": "objId",
          "type": "string"
        },
        {
          "indexed": false,
          "internalType": "uint256",
          "name": "starttime",
          "type": "uint256"
        },
        {
          "indexed": false,
          "internalType": "uint256",
          "name": "endtime",
          "type": "uint256"
        }
      ],
      "name": "BountyStarted",
      "type": "event"
    },
    {
      "anonymous": false,
      "inputs": [
        {
          "indexed": false,
          "internalType": "string",
          "name": "objId",
          "type": "string"
        },
        {
          "indexed": false,
          "internalType": "address",
          "name": "addrFrom",
          "type": "address"
        },
        {
          "indexed": false,
          "internalType": "uint256",
          "name": "amount",
          "type": "uint256"
        },
        {
          "indexed": false,
          "internalType": "uint256",
          "name": "timestamp",
          "type": "uint256"
        }
      ],
      "name": "BountyUpdate",
      "type": "event"
    },
    {
      "anonymous": false,
      "inputs": [
        {
          "indexed": false,
          "internalType": "uint64",
          "name": "version",
          "type": "uint64"
        }
      ],
      "name": "Initialized",
      "type": "event"
    },
    {
      "anonymous": false,
      "inputs": [
        {
          "indexed": true,
          "internalType": "address",
          "name": "previousOwner",
          "type": "address"
        },
        {
          "indexed": true,
          "internalType": "address",
          "name": "newOwner",
          "type": "address"
        }
      ],
      "name": "OwnershipTransferred",
      "type": "event"
    },
    {
      "anonymous": false,
      "inputs": [
        {
          "indexed": false,
          "internalType": "address",
          "name": "account",
          "type": "address"
        }
      ],
      "name": "Paused",
      "type": "event"
    },
    {
      "anonymous": false,
      "inputs": [
        {
          "indexed": false,
          "internalType": "uint256",
          "name": "accId",
          "type": "uint256"
        },
        {
          "indexed": false,
          "internalType": "address",
          "name": "addr",
          "type": "address"
        },
        {
          "indexed": false,
          "internalType": "uint256",
          "name": "reputation",
          "type": "uint256"
        },
        {
          "indexed": false,
          "internalType": "uint256",
          "name": "amount",
          "type": "uint256"
        },
        {
          "indexed": false,
          "internalType": "uint256",
          "name": "nonce",
          "type": "uint256"
        }
      ],
      "name": "ReputationClaim",
      "type": "event"
    },
    {
      "anonymous": false,
      "inputs": [
        {
          "indexed": false,
          "internalType": "address",
          "name": "account",
          "type": "address"
        }
      ],
      "name": "Unpaused",
      "type": "event"
    },
    {
      "anonymous": false,
      "inputs": [
        {
          "indexed": true,
          "internalType": "address",
          "name": "implementation",
          "type": "address"
        }
      ],
      "name": "Upgraded",
      "type": "event"
    },
    {
      "inputs": [],
      "name": "UPGRADE_INTERFACE_VERSION",
      "outputs": [
        {
          "internalType": "string",
          "name": "",
          "type": "string"
        }
      ],
      "stateMutability": "view",
      "type": "function"
    },
    {
      "inputs": [
        {
          "internalType": "bytes32",
          "name": "",
          "type": "bytes32"
        }
      ],
      "name": "_bounties",
      "outputs": [
        {
          "internalType": "uint256",
          "name": "totalAmount",
          "type": "uint256"
        },
        {
          "internalType": "uint256",
          "name": "starttime",
          "type": "uint256"
        },
        {
          "internalType": "uint256",
          "name": "endtime",
          "type": "uint256"
        }
      ],
      "stateMutability": "view",
      "type": "function"
    },
    {
      "inputs": [
        {
          "internalType": "uint256",
          "name": "",
          "type": "uint256"
        }
      ],
      "name": "_claimedBounty",
      "outputs": [
        {
          "internalType": "uint256",
          "name": "",
          "type": "uint256"
        }
      ],
      "stateMutability": "view",
      "type": "function"
    },
    {
      "inputs": [
        {
          "internalType": "uint256",
          "name": "",
          "type": "uint256"
        }
      ],
      "name": "_claimedReputation",
      "outputs": [
        {
          "internalType": "uint256",
          "name": "totalClaimed",
          "type": "uint256"
        },
        {
          "internalType": "uint256",
          "name": "lastUpdate",
          "type": "uint256"
        }
      ],
      "stateMutability": "view",
      "type": "function"
    },
    {
      "inputs": [
        {
          "internalType": "uint256",
          "name": "",
          "type": "uint256"
        }
      ],
      "name": "_nonces",
      "outputs": [
        {
          "internalType": "uint256",
          "name": "",
          "type": "uint256"
        }
      ],
      "stateMutability": "view",
      "type": "function"
    },
    {
      "inputs": [
        {
          "internalType": "uint256",
          "name": "_accid",
          "type": "uint256"
        },
        {
          "internalType": "uint256",
          "name": "_total_amount",
          "type": "uint256"
        },
        {
          "internalType": "bytes",
          "name": "_sig",
          "type": "bytes"
        }
      ],
      "name": "bountyClaim",
      "outputs": [],
      "stateMutability": "nonpayable",
      "type": "function"
    },
    {
      "inputs": [],
      "name": "c_signer",
      "outputs": [
        {
          "internalType": "address",
          "name": "",
          "type": "address"
        }
      ],
      "stateMutability": "view",
      "type": "function"
    },
    {
      "inputs": [
        {
          "internalType": "bytes32",
          "name": "_hash",
          "type": "bytes32"
        }
      ],
      "name": "getBounty",
      "outputs": [
        {
          "components": [
            {
              "internalType": "uint256",
              "name": "totalAmount",
              "type": "uint256"
            },
            {
              "internalType": "uint256",
              "name": "starttime",
              "type": "uint256"
            },
            {
              "internalType": "uint256",
              "name": "endtime",
              "type": "uint256"
            }
          ],
          "internalType": "struct StackPointClaim.BountyStruct",
          "name": "",
          "type": "tuple"
        }
      ],
      "stateMutability": "view",
      "type": "function"
    },
    {
      "inputs": [
        {
          "internalType": "uint256",
          "name": "_accid",
          "type": "uint256"
        },
        {
          "internalType": "uint256",
          "name": "_reputation",
          "type": "uint256"
        }
      ],
      "name": "getMessageHash",
      "outputs": [
        {
          "internalType": "bytes32",
          "name": "",
          "type": "bytes32"
        }
      ],
      "stateMutability": "view",
      "type": "function"
    },
    {
      "inputs": [
        {
          "internalType": "uint256",
          "name": "_accid",
          "type": "uint256"
        },
        {
          "internalType": "uint256",
          "name": "_amount",
          "type": "uint256"
        }
      ],
      "name": "getMessageHash2",
      "outputs": [
        {
          "internalType": "bytes32",
          "name": "",
          "type": "bytes32"
        }
      ],
      "stateMutability": "view",
      "type": "function"
    },
    {
      "inputs": [
        {
          "internalType": "address",
          "name": "initialOwner",
          "type": "address"
        },
        {
          "internalType": "address",
          "name": "_token",
          "type": "address"
        }
      ],
      "name": "initialize",
      "outputs": [],
      "stateMutability": "nonpayable",
      "type": "function"
    },
    {
      "inputs": [],
      "name": "owner",
      "outputs": [
        {
          "internalType": "address",
          "name": "",
          "type": "address"
        }
      ],
      "stateMutability": "view",
      "type": "function"
    },
    {
      "inputs": [],
      "name": "pause",
      "outputs": [],
      "stateMutability": "nonpayable",
      "type": "function"
    },
    {
      "inputs": [],
      "name": "paused",
      "outputs": [
        {
          "internalType": "bool",
          "name": "",
          "type": "bool"
        }
      ],
      "stateMutability": "view",
      "type": "function"
    },
    {
      "inputs": [
        {
          "internalType": "string",
          "name": "_bountyId",
          "type": "string"
        },
        {
          "internalType": "uint256",
          "name": "_amount",
          "type": "uint256"
        },
        {
          "internalType": "uint256",
          "name": "deadline",
          "type": "uint256"
        },
        {
          "internalType": "uint8",
          "name": "v",
          "type": "uint8"
        },
        {
          "internalType": "bytes32",
          "name": "r",
          "type": "bytes32"
        },
        {
          "internalType": "bytes32",
          "name": "s",
          "type": "bytes32"
        }
      ],
      "name": "placeBounty",
      "outputs": [],
      "stateMutability": "nonpayable",
      "type": "function"
    },
    {
      "inputs": [],
      "name": "proxiableUUID",
      "outputs": [
        {
          "internalType": "bytes32",
          "name": "",
          "type": "bytes32"
        }
      ],
      "stateMutability": "view",
      "type": "function"
    },
    {
      "inputs": [],
      "name": "renounceOwnership",
      "outputs": [],
      "stateMutability": "nonpayable",
      "type": "function"
    },
    {
      "inputs": [
        {
          "internalType": "uint256",
          "name": "_accid",
          "type": "uint256"
        },
        {
          "internalType": "uint256",
          "name": "_reputation",
          "type": "uint256"
        },
        {
          "internalType": "bytes",
          "name": "_sig",
          "type": "bytes"
        }
      ],
      "name": "reputationClaim",
      "outputs": [],
      "stateMutability": "nonpayable",
      "type": "function"
    },
    {
      "inputs": [
        {
          "internalType": "address",
          "name": "_signer",
          "type": "address"
        }
      ],
      "name": "setSigner",
      "outputs": [],
      "stateMutability": "nonpayable",
      "type": "function"
    },
    {
      "inputs": [
        {
          "internalType": "address",
          "name": "newOwner",
          "type": "address"
        }
      ],
      "name": "transferOwnership",
      "outputs": [],
      "stateMutability": "nonpayable",
      "type": "function"
    },
    {
      "inputs": [],
      "name": "unpause",
      "outputs": [],
      "stateMutability": "nonpayable",
      "type": "function"
    },
    {
      "inputs": [
        {
          "internalType": "address",
          "name": "newImplementation",
          "type": "address"
        },
        {
          "internalType": "bytes",
          "name": "data",
          "type": "bytes"
        }
      ],
      "name": "upgradeToAndCall",
      "outputs": [],
      "stateMutability": "payable",
      "type": "function"
    },
    {
      "inputs": [],
      "name": "version",
      "outputs": [
        {
          "internalType": "string",
          "name": "",
          "type": "string"
        }
      ],
      "stateMutability": "pure",
      "type": "function"
    },
    {
      "inputs": [
        {
          "internalType": "uint256",
          "name": "_amount",
          "type": "uint256"
        }
      ],
      "name": "withdraw",
      "outputs": [],
      "stateMutability": "nonpayable",
      "type": "function"
    }
  ],
  "bytecode": "0x60a06040523060805234801561001457600080fd5b5061001d610022565b6100d4565b7ff0c57e16840df040f15088dc2f81fe391c3923bec73e23a9662efc9c229c6a00805468010000000000000000900460ff16156100725760405163f92ee8a960e01b815260040160405180910390fd5b80546001600160401b03908116146100d15780546001600160401b0319166001600160401b0390811782556040519081527fc7f505b2f371ae2175ee4913f4499e1f2633a7b5936321eed1cdaeb6115181d29060200160405180910390a15b50565b6080516121f8620000fe60003960008181611499015281816114c2015261160301526121f86000f3fe60806040526004361061014b5760003560e01c80636c19e783116100b6578063ae2611fb1161006f578063ae2611fb14610414578063b176969f14610434578063d44d32391461047d578063db387df314610399578063f2fde38b1461049d578063f36f9c4f146104bd57600080fd5b80636c19e78314610364578063715018a614610384578063734e6308146103995780638456cb59146103b95780638da5cb5b146103ce578063ad3cb1cc146103e357600080fd5b80633f4ba83a116101085780633f4ba83a146102a3578063485cc955146102b85780634f1ef286146102d857806352d1902d146102eb57806354fd4d50146103005780635c975abb1461033457600080fd5b8063029ba1fa14610150578063055bc7ce146101905780632417395c146101e75780632c2f4003146102295780632e1a7d4d146102615780633c615ece14610283575b600080fd5b34801561015c57600080fd5b5061017d61016b366004611ce5565b60026020526000908152604090205481565b6040519081526020015b60405180910390f35b34801561019c57600080fd5b506101cc6101ab366004611ce5565b60036020526000908152604090208054600182015460029092015490919083565b60408051938452602084019290925290820152606001610187565b3480156101f357600080fd5b50610207610202366004611ce5565b6104ea565b6040805182518152602080840151908201529181015190820152606001610187565b34801561023557600080fd5b50600154610249906001600160a01b031681565b6040516001600160a01b039091168152602001610187565b34801561026d57600080fd5b5061028161027c366004611ce5565b610547565b005b34801561028f57600080fd5b5061028161029e366004611d47565b610626565b3480156102af57600080fd5b506102816108ce565b3480156102c457600080fd5b506102816102d3366004611db6565b6108e0565b6102816102e6366004611dff565b610ac5565b3480156102f757600080fd5b5061017d610ae0565b34801561030c57600080fd5b50604080518082019091526002815261763160f01b60208201525b6040516101879190611ee5565b34801561034057600080fd5b506000805160206121a38339815191525460ff166040519015158152602001610187565b34801561037057600080fd5b5061028161037f366004611f18565b610afd565b34801561039057600080fd5b50610281610b27565b3480156103a557600080fd5b5061017d6103b4366004611f33565b610b39565b3480156103c557600080fd5b50610281610b80565b3480156103da57600080fd5b50610249610b90565b3480156103ef57600080fd5b50610327604051806040016040528060058152602001640352e302e360dc1b81525081565b34801561042057600080fd5b5061028161042f366004611d47565b610bbe565b34801561044057600080fd5b5061046861044f366004611ce5565b6004602052600090815260409020805460019091015482565b60408051928352602083019190915201610187565b34801561048957600080fd5b50610281610498366004611f55565b610f23565b3480156104a957600080fd5b506102816104b8366004611f18565b6112b4565b3480156104c957600080fd5b5061017d6104d8366004611ce5565b60056020526000908152604090205481565b61050e60405180606001604052806000815260200160008152602001600081525090565b50600090815260036020908152604091829020825160608101845281548152600182015492810192909252600201549181019190915290565b61054f6112f2565b600080546040516370a0823160e01b81523060048201526001600160a01b03909116906370a0823190602401602060405180830381865afa158015610598573d6000803e3d6000fd5b505050506040513d601f19601f820116820180604052508101906105bc9190611fd8565b9050818110156106045760405162461bcd60e51b815260206004820152600e60248201526d616d6f756e74206578636565647360901b60448201526064015b60405180910390fd5b61062261060f610b90565b6000546001600160a01b03169084611324565b5050565b600084116106675760405162461bcd60e51b815260206004820152600e60248201526d189859081858d8dbdd5b9d08125160921b60448201526064016105fb565b600084815260056020526040812054906106818286612007565b90506101f48110156106d55760405162461bcd60e51b815260206004820152601860248201527f6d696e696d756d20636c61696d20616d6f756e7420353030000000000000000060448201526064016105fb565b60006106e18787610b39565b6001549091506001600160a01b03166106fb828787611388565b6001600160a01b0316146107455760405162461bcd60e51b8152602060048201526011602482015270696e76616c6964207369676e617475726560781b60448201526064016105fb565b600087815260026020526040812080546001929061076490849061201a565b909155506107749050828461201a565b600088815260056020526040808220929092555490516370a0823160e01b815230600482015283916001600160a01b0316906370a0823190602401602060405180830381865afa1580156107cc573d6000803e3d6000fd5b505050506040513d601f19601f820116820180604052508101906107f09190611fd8565b101561080e5760405162461bcd60e51b81526004016105fb9061202d565b6000606461081d84600561205b565b6108279190612072565b9050610847610834610b90565b6000546001600160a01b03169083611324565b610868336108558386612007565b6000546001600160a01b03169190611324565b6000888152600260209081526040918290205482518b8152339281019290925291810185905260608101919091527f4ed0057b77531b639e9d7844e40510885f4d10503dd50dfe12dca5d14f6b7855906080015b60405180910390a15050505050505050565b6108d66112f2565b6108de611405565b565b7ff0c57e16840df040f15088dc2f81fe391c3923bec73e23a9662efc9c229c6a008054600160401b810460ff16159067ffffffffffffffff166000811580156109265750825b905060008267ffffffffffffffff1660011480156109435750303b155b905081158015610951575080155b1561096f5760405163f92ee8a960e01b815260040160405180910390fd5b845467ffffffffffffffff19166001178555831561099957845460ff60401b1916600160401b1785555b6001600160a01b0387166109e35760405162461bcd60e51b8152602060048201526011602482015270626164206f776e6572206164647265737360781b60448201526064016105fb565b6001600160a01b038616610a2d5760405162461bcd60e51b815260206004820152601160248201527062616420746f6b656e206164647265737360781b60448201526064016105fb565b600080546001600160a01b038089166001600160a01b03199283161790925560018054928a1692909116919091179055610a65611465565b610a6e87611475565b610a76611486565b8315610abc57845460ff60401b19168555604051600181527fc7f505b2f371ae2175ee4913f4499e1f2633a7b5936321eed1cdaeb6115181d29060200160405180910390a15b50505050505050565b610acd61148e565b610ad682611533565b610622828261153b565b6000610aea6115f8565b5060008051602061218383398151915290565b610b056112f2565b600180546001600160a01b0319166001600160a01b0392909216919091179055565b610b2f6112f2565b6108de6000611641565b600082815260026020908152604080832054815192830186905290820184905260608201526080016040516020818303038152906040528051906020012090505b92915050565b610b886112f2565b6108de6116b2565b7f9016d09d72d40fdae2fd8ceac6b6234c7706214fd39c1cd1e609a0528c199300546001600160a01b031690565b60008411610bff5760405162461bcd60e51b815260206004820152600e60248201526d189859081858d8dbdd5b9d08125160921b60448201526064016105fb565b60008311610c425760405162461bcd60e51b815260206004820152601060248201526f1898590818db185a5b48185b5bdd5b9d60821b60448201526064016105fb565b600084815260046020526040902060010154610c619062278d0061201a565b4211610caf5760405162461bcd60e51b815260206004820152601760248201527f636c61696d61626c65206576657279203330206461797300000000000000000060448201526064016105fb565b60008481526004602052604081205490610cc98286612007565b90506000610cd8600a83612072565b9050683635c9adc5dea00000811015610d285760405162461bcd60e51b815260206004820152601260248201527106d696e696d756d20636c61696d20313030360741b60448201526064016105fb565b6000610d348888610b39565b6001549091506001600160a01b0316610d4e828888611388565b6001600160a01b031614610d985760405162461bcd60e51b8152602060048201526011602482015270696e76616c6964207369676e617475726560781b60448201526064016105fb565b6000888152600260205260408120805460019290610db790849061201a565b90915550506040805180820190915280610dd1848761201a565b81524260209182015260008a8152600480835260408083208551815594909301516001909401939093555490516370a0823160e01b8152309281019290925283916001600160a01b03909116906370a0823190602401602060405180830381865afa158015610e44573d6000803e3d6000fd5b505050506040513d601f19601f82011682018060405250810190610e689190611fd8565b1015610e865760405162461bcd60e51b81526004016105fb9061202d565b60006064610e9584601461205b565b610e9f9190612072565b9050610eac610834610b90565b610eba336108558386612007565b6000898152600260209081526040918290205482518c815233928101929092528183018b905260608201869052608082015290517f386e19f922e07101d80b90409999970d08b6c162d88daaaba642b5a8f6539c819181900360a00190a1505050505050505050565b60008787604051602001610f38929190612094565b60408051601f198184030181529190528051602090910120905060058711610f8e5760405162461bcd60e51b8152602060048201526009602482015268189859081bd89a925960ba1b60448201526064016105fb565b678ac7230489e80000861015610fd65760405162461bcd60e51b815260206004820152600d60248201526c1b5a5b880c4c08185b5bdd5b9d609a1b60448201526064016105fb565b600081815260036020526040902054156110b85760008181526003602052604090206002015442106110435760405162461bcd60e51b81526020600482015260166024820152753137bab73a3c903832b934b7b21032bc3834b932b21760511b60448201526064016105fb565b60008181526003602052604081208054889190839061106390849061201a565b918290555060408051606081018252918252600085815260036020818152838320600181018054838801908152600283018054978901978852958b905293909252945190945551909255519055506111529050565b60405180606001604052808781526020014281526020014262278d006110de919061201a565b9052600082815260036020908152604091829020835181559083015160018201559101516002909101557fd23d5b87dc1fe99765d9980d2f73cd63ee70ea6c265b636692586a420c0ff4958888426111398162278d0061201a565b60405161114994939291906120cd565b60405180910390a15b6000546040516370a0823160e01b815233600482015287916001600160a01b0316906370a0823190602401602060405180830381865afa15801561119a573d6000803e3d6000fd5b505050506040513d601f19601f820116820180604052508101906111be9190611fd8565b10156111dc5760405162461bcd60e51b81526004016105fb9061202d565b60005460405163d505accf60e01b8152336004820152306024820152604481018890526064810187905260ff8616608482015260a4810185905260c481018490526001600160a01b039091169063d505accf9060e401600060405180830381600087803b15801561124c57600080fd5b505af1158015611260573d6000803e3d6000fd5b505060005461127d92506001600160a01b031690503330896116fb565b7f525d9549cd7c80f9f13e71a6eefda9984c30efedfa0464e52c772f0a90410a2788883389426040516108bc9594939291906120f4565b6112bc6112f2565b6001600160a01b0381166112e657604051631e4fbdf760e01b8152600060048201526024016105fb565b6112ef81611641565b50565b336112fb610b90565b6001600160a01b0316146108de5760405163118cdaa760e01b81523360048201526024016105fb565b6040516001600160a01b0383811660248301526044820183905261138391859182169063a9059cbb906064015b604051602081830303815290604052915060e01b6020820180516001600160e01b03838183161783525050505061173a565b505050565b7f19457468657265756d205369676e6564204d6573736167653a0a3332000000006000908152601c849052603c812060006113f98286868080601f01602080910402602001604051908101604052809392919081815260200183838082843760009201919091525061179d92505050565b925050505b9392505050565b61140d6117c7565b6000805160206121a3833981519152805460ff191681557f5db9ee0a495bf2e6ff9c91a7834c1ba4fdd244a5e8aa4e537bd38aeae4b073aa335b6040516001600160a01b03909116815260200160405180910390a150565b61146d6117f7565b6108de611840565b61147d6117f7565b6112ef81611861565b6108de6117f7565b306001600160a01b037f000000000000000000000000000000000000000000000000000000000000000016148061151557507f00000000000000000000000000000000000000000000000000000000000000006001600160a01b0316611509600080516020612183833981519152546001600160a01b031690565b6001600160a01b031614155b156108de5760405163703e46dd60e11b815260040160405180910390fd5b6112ef6112f2565b816001600160a01b03166352d1902d6040518163ffffffff1660e01b8152600401602060405180830381865afa925050508015611595575060408051601f3d908101601f1916820190925261159291810190611fd8565b60015b6115bd57604051634c9c8ce360e01b81526001600160a01b03831660048201526024016105fb565b60008051602061218383398151915281146115ee57604051632a87526960e21b8152600481018290526024016105fb565b6113838383611869565b306001600160a01b037f000000000000000000000000000000000000000000000000000000000000000016146108de5760405163703e46dd60e11b815260040160405180910390fd5b7f9016d09d72d40fdae2fd8ceac6b6234c7706214fd39c1cd1e609a0528c19930080546001600160a01b031981166001600160a01b03848116918217845560405192169182907f8be0079c531659141344cd1fd0a4f28419497f9722a3daafe3b4186f6b6457e090600090a3505050565b6116ba6118bf565b6000805160206121a3833981519152805460ff191660011781557f62e78cea01bee320cd4e420270b5ea74000d11b0c9f74754ebdbfc544b05a25833611447565b6040516001600160a01b0384811660248301528381166044830152606482018390526117349186918216906323b872dd90608401611351565b50505050565b600061174f6001600160a01b038416836118f0565b90508051600014158015611774575080806020019051810190611772919061212e565b155b1561138357604051635274afe760e01b81526001600160a01b03841660048201526024016105fb565b6000806000806117ad86866118fe565b9250925092506117bd828261194b565b5090949350505050565b6000805160206121a38339815191525460ff166108de57604051638dfc202b60e01b815260040160405180910390fd5b7ff0c57e16840df040f15088dc2f81fe391c3923bec73e23a9662efc9c229c6a0054600160401b900460ff166108de57604051631afcd79f60e31b815260040160405180910390fd5b6118486117f7565b6000805160206121a3833981519152805460ff19169055565b6112bc6117f7565b61187282611a04565b6040516001600160a01b038316907fbc7cd75a20ee27fd9adebab32041f755214dbc6bffa90cc0225b39da2e5c2d3b90600090a28051156118b7576113838282611a69565b610622611adf565b6000805160206121a38339815191525460ff16156108de5760405163d93c066560e01b815260040160405180910390fd5b60606113fe83836000611afe565b600080600083516041036119385760208401516040850151606086015160001a61192a88828585611b91565b955095509550505050611944565b50508151600091506002905b9250925092565b600082600381111561195f5761195f612150565b03611968575050565b600182600381111561197c5761197c612150565b0361199a5760405163f645eedf60e01b815260040160405180910390fd5b60028260038111156119ae576119ae612150565b036119cf5760405163fce698f760e01b8152600481018290526024016105fb565b60038260038111156119e3576119e3612150565b03610622576040516335e2f38360e21b8152600481018290526024016105fb565b806001600160a01b03163b600003611a3a57604051634c9c8ce360e01b81526001600160a01b03821660048201526024016105fb565b60008051602061218383398151915280546001600160a01b0319166001600160a01b0392909216919091179055565b6060600080846001600160a01b031684604051611a869190612166565b600060405180830381855af49150503d8060008114611ac1576040519150601f19603f3d011682016040523d82523d6000602084013e611ac6565b606091505b5091509150611ad6858383611c60565b95945050505050565b34156108de5760405163b398979f60e01b815260040160405180910390fd5b606081471015611b235760405163cd78605960e01b81523060048201526024016105fb565b600080856001600160a01b03168486604051611b3f9190612166565b60006040518083038185875af1925050503d8060008114611b7c576040519150601f19603f3d011682016040523d82523d6000602084013e611b81565b606091505b50915091506113f9868383611c60565b600080807f7fffffffffffffffffffffffffffffff5d576e7357a4501ddfe92f46681b20a0841115611bcc5750600091506003905082611c56565b604080516000808252602082018084528a905260ff891692820192909252606081018790526080810186905260019060a0016020604051602081039080840390855afa158015611c20573d6000803e3d6000fd5b5050604051601f1901519150506001600160a01b038116611c4c57506000925060019150829050611c56565b9250600091508190505b9450945094915050565b606082611c7557611c7082611cbc565b6113fe565b8151158015611c8c57506001600160a01b0384163b155b15611cb557604051639996b31560e01b81526001600160a01b03851660048201526024016105fb565b50806113fe565b805115611ccc5780518082602001fd5b604051630a12f52160e11b815260040160405180910390fd5b600060208284031215611cf757600080fd5b5035919050565b60008083601f840112611d1057600080fd5b50813567ffffffffffffffff811115611d2857600080fd5b602083019150836020828501011115611d4057600080fd5b9250929050565b60008060008060608587031215611d5d57600080fd5b8435935060208501359250604085013567ffffffffffffffff811115611d8257600080fd5b611d8e87828801611cfe565b95989497509550505050565b80356001600160a01b0381168114611db157600080fd5b919050565b60008060408385031215611dc957600080fd5b611dd283611d9a565b9150611de060208401611d9a565b90509250929050565b634e487b7160e01b600052604160045260246000fd5b60008060408385031215611e1257600080fd5b611e1b83611d9a565b9150602083013567ffffffffffffffff80821115611e3857600080fd5b818501915085601f830112611e4c57600080fd5b813581811115611e5e57611e5e611de9565b604051601f8201601f19908116603f01168101908382118183101715611e8657611e86611de9565b81604052828152886020848701011115611e9f57600080fd5b8260208601602083013760006020848301015280955050505050509250929050565b60005b83811015611edc578181015183820152602001611ec4565b50506000910152565b6020815260008251806020840152611f04816040850160208701611ec1565b601f01601f19169190910160400192915050565b600060208284031215611f2a57600080fd5b6113fe82611d9a565b60008060408385031215611f4657600080fd5b50508035926020909101359150565b600080600080600080600060c0888a031215611f7057600080fd5b873567ffffffffffffffff811115611f8757600080fd5b611f938a828b01611cfe565b9098509650506020880135945060408801359350606088013560ff81168114611fbb57600080fd5b969995985093969295946080840135945060a09093013592915050565b600060208284031215611fea57600080fd5b5051919050565b634e487b7160e01b600052601160045260246000fd5b81810381811115610b7a57610b7a611ff1565b80820180821115610b7a57610b7a611ff1565b602080825260149082015273696e73756666696369616e742062616c616e636560601b604082015260600190565b8082028115828204841417610b7a57610b7a611ff1565b60008261208f57634e487b7160e01b600052601260045260246000fd5b500490565b8183823760009101908152919050565b81835281816020850137506000828201602090810191909152601f909101601f19169091010190565b6060815260006120e16060830186886120a4565b6020830194909452506040015292915050565b6080815260006121086080830187896120a4565b6001600160a01b0395909516602083015250604081019290925260609091015292915050565b60006020828403121561214057600080fd5b815180151581146113fe57600080fd5b634e487b7160e01b600052602160045260246000fd5b60008251612178818460208701611ec1565b919091019291505056fe360894a13ba1a3210667c828492db98dca3e2076cc3735a920a3ca505d382bbccd5ed15c6e187e77e9aee88184c21f4f2182ab5827cb3b7e07fbedcd63f03300a2646970667358221220fe08afd01e930272b2ccd3ca36750eec2e7602c0f559030b4bde7cd468cf090664736f6c63430008180033",
  "linkReferences": {},
  "deployedLinkReferences": {}
}